:1000000012C02CC02BC02AC035C028C067C17DC11A
:1000100026C024C023C022C021C020C01FC01EC0D3
:100020005EC01CC01BC011241FBECFE5D4E0DEBFE4
:10003000CDBF10E0A0E6B0E0E8E6F3E002C0059036
:100040000D92A236B107D9F710E0A2E6B0E001C0E8
:100050001D92AF36B107E1F76FD184C1D1CF1F92A6
:100060000F920FB60F92112415BA0F900FBE0F907A
:100070001F9018951F920F920FB60F9211248F9315
:100080009F9380916C0090916D00019690936D000C
:1000900080936C00409788F0869B0FC0809162002F
:1000A000882321F082B394E0892782BB10926200FA
:1000B0001092690081E08093600080916C009091C3
:1000C0006D008536910520F01092680010926B004B
:1000D0009F918F910F900FBE0F901F9018951F92B8
:1000E0000F920FB60F9211242F933F938F939F93EC
:1000F000459935C09198809162008130A9F058F0FF
:10010000823029F581E080936200809169008F5FE1
:10011000809369000CC081E0809362008091690047
:100120008F5F8093690013C082E08093620024B5E2
:1001300090916C0080E0820F911D8A5391400D9741
:1001400030F01092600082B398E0892782BB14BC23
:1001500010926D0010926C0080E488BFB2C084B52C
:1001600080936700919A08B606FE0DC080916700E3
:1001700087FD09C080916C0090916D00019690936D
:100180006D0080936C00809162008130B1F48091A9
:100190006900813009F095C080916000882309F4DE
:1001A00090C090916C0080E020916700820F911DBB
:1001B000909366008093650084C0823009F081C00E
:1001C00080916900813009F07CC0809160008823B3
:1001D00009F477C090916C0080E020916700820F55
:1001E000911D9093640080936300809165009091CD
:1001F00066009C01295831092D32310520F41092F6
:100200006800939A29C08938910588F48B35910547
:1002100010F48AEF06C08237910510F48CEE01C00D
:1002200088ED8093680081E080936A000FC0843E6F
:10023000910510F08AEF06C08D3C910510F08CEE10
:1002400001C088ED8093680010926A001BBC809109
:10025000680080958ABD93988091630090916400B6
:100260009C01295831092D32310518F410926B0088
:1002700028C08938910588F48B35910510F48BEFEF
:1002800006C08237910510F481EF01C088ED80939C
:100290006B0081E080936E000FC0843E910510F0EA
:1002A0008BEF06C08D3C910510F081EF01C088ED09
:1002B00080936B0010926E0019BC80916B0080954A
:1002C00088BD82B390E1892782BB9F918F913F9136
:1002D0002F910F900FBE0F901F9018951F920F92A5
:1002E0000FB60F9211248F9380916800853638F0F5
:1002F00080916A00811102C0A99A01C0AA9A8F91C7
:100300000F900FBE0F901F9018951F920F920FB66F
:100310000F9211248F9380916B00853638F0809175
:100320006E00811102C0AC9A01C0AB9A8F910F9000
:100330000FBE0F901F9018958CE181BB8EE184BB9E
:10034000899A81E08FBD8AE08EBD1BBC8FEF8ABD8C
:1003500019BC88BD84E085BD8CE589BF88E088B97B
:080360007894FFCFF894FFCF61
:02036800010092
:00000001FF
